00COTAHIST.2026BOVESPA                                                                                                                                                                                                                               
012026022502PETR4       010PETROBRAS                    00000000038500000000003850000000000385000000000038500000000003850                               000000000000001000000000000003850000                                                         
012026022502VALE3       010VALE                         00000000061200000000006120000000000612000000000061200000000006120                               000000000000001000000000000006120000                                                         
012026022502ITUB4       010ITAUUNIBANCO                 00000000033100000000003310000000000331000000000033100000000003310                               000000000000001000000000000003310000                                                         
012026022502BBDC4       010BRADESCO                     00000000015400000000001540000000000154000000000015400000000001540                               000000000000001000000000000001540000                                                         
012026022502WEGE3       010WEG                          00000000042000000000004200000000000420000000000042000000000004200                               000000000000001000000000000004200000                                                         
99COTAHIST.2026BOVESPA                                                                                                                                                                                                                               
